{
  "contractName": "Exchange",
  "abi": [
    {
      "anonymous": false,
      "inputs": [
        {
          "indexed": true,
          "name": "_from",
          "type": "address"
        },
        {
          "indexed": true,
          "name": "_symbolIndex",
          "type": "uint256"
        },
        {
          "indexed": false,
          "name": "_amount",
          "type": "uint256"
        },
        {
          "indexed": false,
          "name": "_timestamp",
          "type": "uint256"
        }
      ],
      "name": "DepositForTokenReceived",
      "type": "event"
    },
    {
      "anonymous": false,
      "inputs": [
        {
          "indexed": true,
          "name": "_to",
          "type": "address"
        },
        {
          "indexed": true,
          "name": "_symbolIndex",
          "type": "uint256"
        },
        {
          "indexed": false,
          "name": "_amount",
          "type": "uint256"
        },
        {
          "indexed": false,
          "name": "_timestamp",
          "type": "uint256"
        }
      ],
      "name": "WithdrawalToken",
      "type": "event"
    },
    {
      "anonymous": false,
      "inputs": [
        {
          "indexed": true,
          "name": "_from",
          "type": "address"
        },
        {
          "indexed": false,
          "name": "_amount",
          "type": "uint256"
        },
        {
          "indexed": false,
          "name": "_timestamp",
          "type": "uint256"
        }
      ],
      "name": "DepositForEthReceived",
      "type": "event"
    },
    {
      "anonymous": false,
      "inputs": [
        {
          "indexed": true,
          "name": "_to",
          "type": "address"
        },
        {
          "indexed": false,
          "name": "_amount",
          "type": "uint256"
        },
        {
          "indexed": false,
          "name": "_timestamp",
          "type": "uint256"
        }
      ],
      "name": "WithdrawalEth",
      "type": "event"
    },
    {
      "anonymous": false,
      "inputs": [
        {
          "indexed": true,
          "name": "_symbolIndex",
          "type": "uint256"
        },
        {
          "indexed": true,
          "name": "_who",
          "type": "address"
        },
        {
          "indexed": false,
          "name": "_amountTokens",
          "type": "uint256"
        },
        {
          "indexed": false,
          "name": "_priceInWei",
          "type": "uint256"
        },
        {
          "indexed": false,
          "name": "_orderKey",
          "type": "uint256"
        }
      ],
      "name": "LimitSellOrderCreated",
      "type": "event"
    },
    {
      "anonymous": false,
      "inputs": [
        {
          "indexed": true,
          "name": "_symbolIndex",
          "type": "uint256"
        },
        {
          "indexed": false,
          "name": "_amount",
          "type": "uint256"
        },
        {
          "indexed": false,
          "name": "_priceInWei",
          "type": "uint256"
        },
        {
          "indexed": false,
          "name": "_orderKey",
          "type": "uint256"
        }
      ],
      "name": "SellOrderFulfilled",
      "type": "event"
    },
    {
      "anonymous": false,
      "inputs": [
        {
          "indexed": true,
          "name": "_symbolIndex",
          "type": "uint256"
        },
        {
          "indexed": false,
          "name": "_priceInWei",
          "type": "uint256"
        },
        {
          "indexed": false,
          "name": "_orderKey",
          "type": "uint256"
        }
      ],
      "name": "SellOrderCanceled",
      "type": "event"
    },
    {
      "anonymous": false,
      "inputs": [
        {
          "indexed": true,
          "name": "_symbolIndex",
          "type": "uint256"
        },
        {
          "indexed": true,
          "name": "_who",
          "type": "address"
        },
        {
          "indexed": false,
          "name": "_amountTokens",
          "type": "uint256"
        },
        {
          "indexed": false,
          "name": "_priceInWei",
          "type": "uint256"
        },
        {
          "indexed": false,
          "name": "_orderKey",
          "type": "uint256"
        }
      ],
      "name": "LimitBuyOrderCreated",
      "type": "event"
    },
    {
      "anonymous": false,
      "inputs": [
        {
          "indexed": true,
          "name": "_symbolIndex",
          "type": "uint256"
        },
        {
          "indexed": false,
          "name": "_amount",
          "type": "uint256"
        },
        {
          "indexed": false,
          "name": "_priceInWei",
          "type": "uint256"
        },
        {
          "indexed": false,
          "name": "_orderKey",
          "type": "uint256"
        }
      ],
      "name": "BuyOrderFulfilled",
      "type": "event"
    },
    {
      "anonymous": false,
      "inputs": [
        {
          "indexed": true,
          "name": "_symbolIndex",
          "type": "uint256"
        },
        {
          "indexed": false,
          "name": "_priceInWei",
          "type": "uint256"
        },
        {
          "indexed": false,
          "name": "_orderKey",
          "type": "uint256"
        }
      ],
      "name": "BuyOrderCanceled",
      "type": "event"
    },
    {
      "anonymous": false,
      "inputs": [
        {
          "indexed": false,
          "name": "_symbolIndex",
          "type": "uint256"
        },
        {
          "indexed": false,
          "name": "_token",
          "type": "string"
        },
        {
          "indexed": false,
          "name": "_timestamp",
          "type": "uint256"
        }
      ],
      "name": "TokenAddedToSystem",
      "type": "event"
    },
    {
      "constant": false,
      "inputs": [],
      "name": "depositEther",
      "outputs": [],
      "payable": true,
      "stateMutability": "payable",
      "type": "function"
    },
    {
      "constant": false,
      "inputs": [
        {
          "name": "amountInWei",
          "type": "uint256"
        }
      ],
      "name": "withdrawEther",
      "outputs": [],
      "payable": false,
      "stateMutability": "nonpayable",
      "type": "function"
    },
    {
      "constant": true,
      "inputs": [],
      "name": "getEthBalanceInWei",
      "outputs": [
        {
          "name": "",
          "type": "uint256"
        }
      ],
      "payable": false,
      "stateMutability": "view",
      "type": "function"
    },
    {
      "constant": false,
      "inputs": [
        {
          "name": "symbolName",
          "type": "string"
        },
        {
          "name": "erc20TokenAddress",
          "type": "address"
        }
      ],
      "name": "addToken",
      "outputs": [],
      "payable": false,
      "stateMutability": "nonpayable",
      "type": "function"
    },
    {
      "constant": true,
      "inputs": [
        {
          "name": "symbolName",
          "type": "string"
        }
      ],
      "name": "hasToken",
      "outputs": [
        {
          "name": "",
          "type": "bool"
        }
      ],
      "payable": false,
      "stateMutability": "view",
      "type": "function"
    },
    {
      "constant": false,
      "inputs": [
        {
          "name": "symbolName",
          "type": "string"
        }
      ],
      "name": "getSymbolIndexOrThrow",
      "outputs": [
        {
          "name": "",
          "type": "uint8"
        }
      ],
      "payable": false,
      "stateMutability": "nonpayable",
      "type": "function"
    },
    {
      "constant": false,
      "inputs": [
        {
          "name": "symbolName",
          "type": "string"
        },
        {
          "name": "amount",
          "type": "uint256"
        }
      ],
      "name": "depositToken",
      "outputs": [],
      "payable": false,
      "stateMutability": "nonpayable",
      "type": "function"
    },
    {
      "constant": false,
      "inputs": [
        {
          "name": "symbolName",
          "type": "string"
        },
        {
          "name": "amount",
          "type": "uint256"
        }
      ],
      "name": "withdrawToken",
      "outputs": [],
      "payable": false,
      "stateMutability": "nonpayable",
      "type": "function"
    },
    {
      "constant": true,
      "inputs": [
        {
          "name": "symbolName",
          "type": "string"
        }
      ],
      "name": "getBalance",
      "outputs": [
        {
          "name": "",
          "type": "uint256"
        }
      ],
      "payable": false,
      "stateMutability": "view",
      "type": "function"
    },
    {
      "constant": true,
      "inputs": [
        {
          "name": "symbolName",
          "type": "string"
        }
      ],
      "name": "getBuyOrderBook",
      "outputs": [
        {
          "name": "",
          "type": "uint256[]"
        },
        {
          "name": "",
          "type": "uint256[]"
        }
      ],
      "payable": false,
      "stateMutability": "view",
      "type": "function"
    },
    {
      "constant": true,
      "inputs": [
        {
          "name": "symbolName",
          "type": "string"
        }
      ],
      "name": "getSellOrderBook",
      "outputs": [
        {
          "name": "",
          "type": "uint256[]"
        },
        {
          "name": "",
          "type": "uint256[]"
        }
      ],
      "payable": false,
      "stateMutability": "view",
      "type": "function"
    },
    {
      "constant": false,
      "inputs": [
        {
          "name": "symbolName",
          "type": "string"
        },
        {
          "name": "priceInWei",
          "type": "uint256"
        },
        {
          "name": "amount",
          "type": "uint256"
        }
      ],
      "name": "buyToken",
      "outputs": [],
      "payable": false,
      "stateMutability": "nonpayable",
      "type": "function"
    },
    {
      "constant": false,
      "inputs": [
        {
          "name": "symbolName",
          "type": "string"
        },
        {
          "name": "priceInWei",
          "type": "uint256"
        },
        {
          "name": "amount",
          "type": "uint256"
        }
      ],
      "name": "sellToken",
      "outputs": [],
      "payable": false,
      "stateMutability": "nonpayable",
      "type": "function"
    },
    {
      "constant": false,
      "inputs": [
        {
          "name": "symbolName",
          "type": "string"
        },
        {
          "name": "isSellOrder",
          "type": "bool"
        },
        {
          "name": "priceInWei",
          "type": "uint256"
        },
        {
          "name": "offerKey",
          "type": "uint256"
        }
      ],
      "name": "cancelOrder",
      "outputs": [],
      "payable": false,
      "stateMutability": "nonpayable",
      "type": "function"
    }
  ],
  "bytecode": "0x6060604052336000806101000a81548173ffffffffffffffffffffffffffffffffffffffff021916908373ffffffffffffffffffffffffffffffffffffffff160217905550614e51806100536000396000f3006060604052600436106100d0576000357c0100000000000000000000000000000000000000000000000000000000900463ffffffff16806303bc4a27146100d55780631a8eb72b146101cf57806333ad57e4146101f85780633a51d2461461025e5780633bed33ce146102cf5780635ab8ea33146102f2578063728ff02914610361578063851030fe1461045b5780638ea00818146104ca578063977377f81461053f57806398ea5fca146105b6578063b0b22c2c146105c0578063c97a413a1461063c578063d1a3b025146106a2575b600080fd5b34156100e057600080fd5b610130600480803590602001908201803590602001908080601f0160208091040260200160405190810160405280939291908181526020018383808284378201915050505050509190505061071c565b604051808060200180602001838103835285818151815260200191508051906020019060200280838360005b8381101561017757808201518184015260208101905061015c565b50505050905001838103825284818151815260200191508051906020019060200280838360005b838110156101b957808201518184015260208101905061019e565b5050505090500194505050505060405180910390f35b34156101da57600080fd5b6101e26109cc565b6040518082815260200191505060405180910390f35b341561020357600080fd5b61025c600480803590602001908201803590602001908080601f01602080910402602001604051908101604052809392919081815260200183838082843782019150505050505091908035906020019091905050610a13565b005b341561026957600080fd5b6102b9600480803590602001908201803590602001908080601f01602080910402602001604051908101604052809392919081815260200183838082843782019150505050505091905050610d65565b6040518082815260200191505060405180910390f35b34156102da57600080fd5b6102f06004808035906020019091905050610dd2565b005b34156102fd57600080fd5b61035f600480803590602001908201803590602001908080601f01602080910402602001604051908101604052809392919081815260200183838082843782019150505050505091908035906020019091908035906020019091905050610f98565b005b341561036c57600080fd5b6103bc600480803590602001908201803590602001908080601f01602080910402602001604051908101604052809392919081815260200183838082843782019150505050505091905050611f16565b604051808060200180602001838103835285818151815260200191508051906020019060200280838360005b838110156104035780820151818401526020810190506103e8565b50505050905001838103825284818151815260200191508051906020019060200280838360005b8381101561044557808201518184015260208101905061042a565b5050505090500194505050505060405180910390f35b341561046657600080fd5b6104c8600480803590602001908201803590602001908080601f016020809104026020016040519081016040528093929190818152602001838380828437820191505050505050919080359060200190919080359060200190919050506121c7565b005b34156104d557600080fd5b610525600480803590602001908201803590602001908080601f0160208091040260200160405190810160405280939291908181526020018383808284378201915050505050509190505061327a565b604051808215151515815260200191505060405180910390f35b341561054a57600080fd5b61059a600480803590602001908201803590602001908080601f016020809104026020016040519081016040528093929190818152602001838380828437820191505050505050919050506132a8565b604051808260ff1660ff16815260200191505060405180910390f35b6105be6132d1565b005b34156105cb57600080fd5b61063a600480803590602001908201803590602001908080601f0160208091040260200160405190810160405280939291908181526020018383808284378201915050505050509190803573ffffffffffffffffffffffffffffffffffffffff16906020019091905050613405565b005b341561064757600080fd5b6106a0600480803590602001908201803590602001908080601f01602080910402602001604051908101604052809392919081815260200183838082843782019150505050505091908035906020019091905050613643565b005b34156106ad57600080fd5b61071a600480803590602001908201803590602001908080601f0160208091040260200160405190810160405280939291908181526020018383808284378201915050505050509190803515159060200190919080359060200190919080359060200190919050506139c9565b005b610724614d58565b61072c614d58565b6000610736614d58565b61073e614d58565b60008060008061074d8a6132a8565b9650600160008860ff1660ff168152602001908152602001600020600501546040518059106107795750595b90808252806020026020018201604052509550600160008860ff1660ff168152602001908152602001600020600501546040518059106107b65750595b90808252806020026020018201604052509450600160008860ff1660ff168152602001908152602001600020600401549350600092506000600160008960ff1660ff1681526020019081526020016000206003015411156109ba575b600160008860ff1660ff16815260200190815260200160002060030154841115156109b95783868481518110151561084657fe5b90602001906020020181815250506000915060009050600160008860ff1660ff16815260200190815260200160002060020160008581526020019081526020016000206003015490505b600160008860ff1660ff1681526020019081526020016000206002016000858152602001908152602001600020600401548111151561091f57600160008860ff1660ff1681526020019081526020016000206002016000858152602001908152602001600020600201600082815260200190815260200160002060000154820191508080600101915050610890565b81858481518110151561092e57fe5b9060200190602002018181525050600160008860ff1660ff168152602001908152602001600020600201600085815260200190815260200160002060000154841415610979576109b9565b600160008860ff1660ff16815260200190815260200160002060020160008581526020019081526020016000206000015493508280600101935050610812565b5b85859850985050505050505050915091565b6000600460003373ffffffffffffffffffffffffffffffffffffffff1673ffffffffffffffffffffffffffffffffffffffff16815260200190815260200160002054905090565b600080610a1f846132a8565b9150600073ffffffffffffffffffffffffffffffffffffffff16600160008460ff1660ff16815260200190815260200160002060000160009054906101000a900473ffffffffffffffffffffffffffffffffffffffff1673ffffffffffffffffffffffffffffffffffffffff1614151515610a9957600080fd5b600160008360ff1660ff16815260200190815260200160002060000160009054906101000a900473ffffffffffffffffffffffffffffffffffffffff169050600115158173ffffffffffffffffffffffffffffffffffffffff166323b872dd3330876000604051602001526040518463ffffffff167c0100000000000000000000000000000000000000000000000000000000028152600401808473ffffffffffffffffffffffffffffffffffffffff1673ffffffffffffffffffffffffffffffffffffffff1681526020018373ffffffffffffffffffffffffffffffffffffffff1673ffffffffffffffffffffffffffffffffffffffff1681526020018281526020019350505050602060405180830381600087803b1515610bbb57600080fd5b6102c65a03f11515610bcc57600080fd5b505050604051805190501515141515610be457600080fd5b600360003373ffffffffffffffffffffffffffffffffffffffff1673ffffffffffffffffffffffffffffffffffffffff16815260200190815260200160002060008360ff1660ff1681526020019081526020016000205483600360003373ffffffffffffffffffffffffffffffffffffffff1673ffffffffffffffffffffffffffffffffffffffff16815260200190815260200160002060008560ff1660ff168152602001908152602001600020540110151515610ca157600080fd5b82600360003373ffffffffffffffffffffffffffffffffffffffff1673ffffffffffffffffffffffffffffffffffffffff16815260200190815260200160002060008460ff1660ff168152602001908152602001600020600082825401925050819055508160ff163373ffffffffffffffffffffffffffffffffffffffff167fc0aa5496c7b01c4b317a58e270b45f383bcd6ae57f9e5124db9c0674b77764998542604051808381526020018281526020019250505060405180910390a350505050565b600080610d71836132a8565b9050600360003373ffffffffffffffffffffffffffffffffffffffff1673ffffffffffffffffffffffffffffffffffffffff16815260200190815260200160002060008260ff1660ff16815260200190815260200160002054915050919050565b600081600460003373ffffffffffffffffffffffffffffffffffffffff1673ffffffffffffffffffffffffffffffffffffffff168152602001908152602001600020540310151515610e2357600080fd5b600460003373ffffffffffffffffffffffffffffffffffffffff1673ffffffffffffffffffffffffffffffffffffffff1681526020019081526020016000205481600460003373ffffffffffffffffffffffffffffffffffffffff1673ffffffffffffffffffffffffffffffffffffffff168152602001908152602001600020540311151515610eb257600080fd5b80600460003373ffffffffffffffffffffffffffffffffffffffff1673ffffffffffffffffffffffffffffffffffffffff168152602001908152602001600020600082825403925050819055503373ffffffffffffffffffffffffffffffffffffffff166108fc829081150290604051600060405180830381858888f193505050501515610f3f57600080fd5b3373ffffffffffffffffffffffffffffffffffffffff167fac9513adf40097763b4664bee3693d0f051127c5ac55e33f68926c1612ac59958242604051808381526020018281526020019250505060405180910390a250565b6000806000806000806000610fac8a6132a8565b9650600095506000600160008960ff1660ff168152602001908152602001600020600901541480610ff8575088600160008960ff1660ff16815260200190815260200160002060070154115b1561123e57888802955087861015151561101157600080fd5b88861015151561102057600080fd5b85600460003373ffffffffffffffffffffffffffffffffffffffff1673ffffffffffffffffffffffffffffffffffffffff168152602001908152602001600020541015151561106e57600080fd5b600086600460003373ffffffffffffffffffffffffffffffffffffffff1673ffffffffffffffffffffffffffffffffffffffff1681526020019081526020016000205403101515156110bf57600080fd5b600460003373ffffffffffffffffffffffffffffffffffffffff1673ffffffffffffffffffffffffffffffffffffffff1681526020019081526020016000205486600460003373ffffffffffffffffffffffffffffffffffffffff1673ffffffffffffffffffffffffffffffffffffffff16815260200190815260200160002054031115151561114e57600080fd5b85600460003373ffffffffffffffffffffffffffffffffffffffff1673ffffffffffffffffffffffffffffffffffffffff168152602001908152602001600020600082825403925050819055506111a7878a8a33613ed1565b3373ffffffffffffffffffffffffffffffffffffffff168760ff167f2ef51fa215957689865f55575d7d89840bee8fce54b23ef826fea1a304acdd3f8a8c600160008d60ff1660ff16815260200190815260200160002060020160008f81526020019081526020016000206004015460405180848152602001838152602001828152602001935050505060405180910390a3611f0a565b60009450600160008860ff1660ff1681526020019081526020016000206007015493508792505b8884111580156112755750600083115b15611ef457600160008860ff1660ff16815260200190815260200160002060060160008581526020019081526020016000206003015491505b600160008860ff1660ff16815260200190815260200160002060060160008581526020019081526020016000206004015482111580156112ee5750600083115b15611ed057600160008860ff1660ff16815260200190815260200160002060060160008581526020019081526020016000206002016000838152602001908152602001600020600001549050828111151561187a57838102945084600460003373ffffffffffffffffffffffffffffffffffffffff1673ffffffffffffffffffffffffffffffffffffffff168152602001908152602001600020541015151561139657600080fd5b600460003373ffffffffffffffffffffffffffffffffffffffff1673ffffffffffffffffffffffffffffffffffffffff1681526020019081526020016000205485600460003373ffffffffffffffffffffffffffffffffffffffff1673ffffffffffffffffffffffffffffffffffffffff16815260200190815260200160002054031115151561142557600080fd5b84600460003373ffffffffffffffffffffffffffffffffffffffff1673ffffffffffffffffffffffffffffffffffffffff16815260200190815260200160002060008282540392505081905550600360003373ffffffffffffffffffffffffffffffffffffffff1673ffffffffffffffffffffffffffffffffffffffff16815260200190815260200160002060008860ff1660ff1681526020019081526020016000205481600360003373ffffffffffffffffffffffffffffffffffffffff1673ffffffffffffffffffffffffffffffffffffffff16815260200190815260200160002060008a60ff1660ff16815260200190815260200160002054011015151561152f57600080fd5b60046000600160008a60ff1660ff1681526020019081526020016000206006016000878152602001908152602001600020600201600085815260200190815260200160002060010160009054906101000a900473ffffffffffffffffffffffffffffffffffffffff1673ffffffffffffffffffffffffffffffffffffffff1673ffffffffffffffffffffffffffffffffffffffff168152602001908152602001600020548560046000600160008c60ff1660ff1681526020019081526020016000206006016000898152602001908152602001600020600201600087815260200190815260200160002060010160009054906101000a900473ffffffffffffffffffffffffffffffffffffffff1673ffffffffffffffffffffffffffffffffffffffff1673ffffffffffffffffffffffffffffffffffffffff16815260200190815260200160002054011015151561168657600080fd5b80600360003373ffffffffffffffffffffffffffffffffffffffff1673ffffffffffffffffffffffffffffffffffffffff16815260200190815260200160002060008960ff1660ff168152602001908152602001600020600082825401925050819055506000600160008960ff1660ff16815260200190815260200160002060060160008681526020019081526020016000206002016000848152602001908152602001600020600001819055508460046000600160008b60ff1660ff1681526020019081526020016000206006016000888152602001908152602001600020600201600086815260200190815260200160002060010160009054906101000a900473ffffffffffffffffffffffffffffffffffffffff1673ffffffffffffffffffffffffffffffffffffffff1673ffffffffffffffffffffffffffffffffffffffff16815260200190815260200160002060008282540192505081905550600160008860ff1660ff1681526020019081526020016000206006016000858152602001908152602001600020600301600081548092919060010191905055508660ff167fcbfa5edcd918ef1ec42746c71ac83c456f37330c83a22e44d6cfdca22d56471082868560405180848152602001838152602001828152602001935050505060405180910390a28083039250611cbb565b82600160008960ff1660ff16815260200190815260200160002060060160008681526020019081526020016000206002016000848152602001908152602001600020600001541115156118cc57600080fd5b8383029550600460003373ffffffffffffffffffffffffffffffffffffffff1673ffffffffffffffffffffffffffffffffffffffff1681526020019081526020016000205486600460003373ffffffffffffffffffffffffffffffffffffffff1673ffffffffffffffffffffffffffffffffffffffff16815260200190815260200160002054031115151561196057600080fd5b85600460003373ffffffffffffffffffffffffffffffffffffffff1673ffffffffffffffffffffffffffffffffffffffff1681526020019081526020016000206000828254039250508190555060046000600160008a60ff1660ff1681526020019081526020016000206006016000878152602001908152602001600020600201600085815260200190815260200160002060010160009054906101000a900473ffffffffffffffffffffffffffffffffffffffff1673ffffffffffffffffffffffffffffffffffffffff1673ffffffffffffffffffffffffffffffffffffffff168152602001908152602001600020548660046000600160008c60ff1660ff1681526020019081526020016000206006016000898152602001908152602001600020600201600087815260200190815260200160002060010160009054906101000a900473ffffffffffffffffffffffffffffffffffffffff1673ffffffffffffffffffffffffffffffffffffffff1673ffffffffffffffffffffffffffffffffffffffff168152602001908152602001600020540110151515611b0457600080fd5b82600160008960ff1660ff16815260200190815260200160002060060160008681526020019081526020016000206002016000848152602001908152602001600020600001600082825403925050819055508560046000600160008b60ff1660ff1681526020019081526020016000206006016000888152602001908152602001600020600201600086815260200190815260200160002060010160009054906101000a900473ffffffffffffffffffffffffffffffffffffffff1673ffffffffffffffffffffffffffffffffffffffff1673ffffffffffffffffffffffffffffffffffffffff1681526020019081526020016000206000828254019250508190555082600360003373ffffffffffffffffffffffffffffffffffffffff1673ffffffffffffffffffffffffffffffffffffffff16815260200190815260200160002060008960ff1660ff16815260200190815260200160002060008282540192505081905550600092508660ff167fcbfa5edcd918ef1ec42746c71ac83c456f37330c83a22e44d6cfdca22d56471084868560405180848152602001838152602001828152602001935050505060405180910390a25b600160008860ff1660ff16815260200190815260200160002060060160008581526020019081526020016000206004015482148015611d3e57506000600160008960ff1660ff1681526020019081526020016000206006016000868152602001908152602001600020600201600084815260200190815260200160002060000154145b15611ec357600160008860ff1660ff1681526020019081526020016000206009016000815480929190600190039190505550600160008860ff1660ff168152602001908152602001600020600601600085815260200190815260200160002060000154841480611dde57506000600160008960ff1660ff168152602001908152602001600020600201600086815260200190815260200160002060000154145b15611e0a576000600160008960ff1660ff16815260200190815260200160002060070181905550611ec2565b600160008860ff1660ff168152602001908152602001600020600601600085815260200190815260200160002060000154600160008960ff1660ff168152602001908152602001600020600701819055506000600160008960ff1660ff1681526020019081526020016000206006016000600160008b60ff1660ff1681526020019081526020016000206002016000888152602001908152602001600020600001548152602001908152602001600020600101819055505b5b81806001019250506112ae565b600160008860ff1660ff168152602001908152602001600020600701549350611265565b6000831115611f0957611f088a8a85610f98565b5b5b50505050505050505050565b611f1e614d58565b611f26614d58565b6000611f30614d58565b611f38614d58565b600080600080611f478a6132a8565b9650600160008860ff1660ff16815260200190815260200160002060090154604051805910611f735750595b90808252806020026020018201604052509550600160008860ff1660ff16815260200190815260200160002060090154604051805910611fb05750595b90808252806020026020018201604052509450600160008860ff1660ff168152602001908152602001600020600701549350600092506000600160008960ff1660ff1681526020019081526020016000206007015411156121b5575b600160008860ff1660ff16815260200190815260200160002060080154841115156121b45783868481518110151561204057fe5b90602001906020020181815250506000915060009050600160008860ff1660ff16815260200190815260200160002060060160008581526020019081526020016000206003015490505b600160008860ff1660ff1681526020019081526020016000206006016000858152602001908152602001600020600401548111151561211957600160008860ff1660ff168152602001908152602001600020600601600085815260200190815260200160002060020160008281526020019081526020016000206000015482019150808060010191505061208a565b81858481518110151561212857fe5b90602001906020020181815250506000600160008960ff1660ff1681526020019081526020016000206006016000868152602001908152602001600020600001541415612174576121b4565b600160008860ff1660ff1681526020019081526020016000206006016000858152602001908152602001600020600001549350828060010193505061200c565b5b85859850985050505050505050915091565b60008060008060008060006121db8a6132a8565b965060009550600094506000600160008960ff1660ff16815260200190815260200160002060050154148061222b575088600160008960ff1660ff16815260200190815260200160002060030154105b156124b657888802955087861015151561224457600080fd5b88861015151561225357600080fd5b87600360003373ffffffffffffffffffffffffffffffffffffffff1673ffffffffffffffffffffffffffffffffffffffff16815260200190815260200160002060008960ff1660ff16815260200190815260200160002054101515156122b857600080fd5b600088600360003373ffffffffffffffffffffffffffffffffffffffff1673ffffffffffffffffffffffffffffffffffffffff16815260200190815260200160002060008a60ff1660ff16815260200190815260200160002054031015151561232057600080fd5b600460003373ffffffffffffffffffffffffffffffffffffffff1673ffffffffffffffffffffffffffffffffffffffff1681526020019081526020016000205486600460003373ffffffffffffffffffffffffffffffffffffffff1673ffffffffffffffffffffffffffffffffffffffff1681526020019081526020016000205401101515156123af57600080fd5b87600360003373ffffffffffffffffffffffffffffffffffffffff1673ffffffffffffffffffffffffffffffffffffffff16815260200190815260200160002060008960ff1660ff1681526020019081526020016000206000828254039250508190555061241f878a8a33614517565b3373ffffffffffffffffffffffffffffffffffffffff168760ff167fc7d136f10bcb424de2ff60d5473d863ed2fdcd5d352e045d89ee9581f54f6afb8a8c600160008d60ff1660ff16815260200190815260200160002060060160008f81526020019081526020016000206004015460405180848152602001838152602001828152602001935050505060405180910390a361326e565b600160008860ff1660ff1681526020019081526020016000206003015493508792505b8884101580156124e95750600083115b1561325857600160008860ff1660ff16815260200190815260200160002060020160008581526020019081526020016000206003015491505b600160008860ff1660ff16815260200190815260200160002060020160008581526020019081526020016000206004015482111580156125625750600083115b1561323457600160008860ff1660ff168152602001908152602001600020600201600085815260200190815260200160002060020160008381526020019081526020016000206000015490508281111515612af557838102945080600360003373ffffffffffffffffffffffffffffffffffffffff1673ffffffffffffffffffffffffffffffffffffffff16815260200190815260200160002060008960ff1660ff168152602001908152602001600020541015151561262157600080fd5b80600360003373ffffffffffffffffffffffffffffffffffffffff1673ffffffffffffffffffffffffffffffffffffffff16815260200190815260200160002060008960ff1660ff16815260200190815260200160002060008282540392505081905550600081600360003373ffffffffffffffffffffffffffffffffffffffff1673ffffffffffffffffffffffffffffffffffffffff16815260200190815260200160002060008a60ff1660ff1681526020019081526020016000205403101515156126ed57600080fd5b60036000600160008a60ff1660ff1681526020019081526020016000206002016000878152602001908152602001600020600201600085815260200190815260200160002060010160009054906101000a900473ffffffffffffffffffffffffffffffffffffffff1673ffffffffffffffffffffffffffffffffffffffff1673ffffffffffffffffffffffffffffffffffffffff16815260200190815260200160002060008860ff1660ff168152602001908152602001600020548160036000600160008c60ff1660ff1681526020019081526020016000206002016000898152602001908152602001600020600201600087815260200190815260200160002060010160009054906101000a900473ffffffffffffffffffffffffffffffffffffffff1673ffffffffffffffffffffffffffffffffffffffff1673ffffffffffffffffffffffffffffffffffffffff16815260200190815260200160002060008a60ff1660ff16815260200190815260200160002054011015151561287257600080fd5b600460003373ffffffffffffffffffffffffffffffffffffffff1673ffffffffffffffffffffffffffffffffffffffff1681526020019081526020016000205485600460003373ffffffffffffffffffffffffffffffffffffffff1673ffffffffffffffffffffffffffffffffffffffff16815260200190815260200160002054011015151561290157600080fd5b8060036000600160008b60ff1660ff1681526020019081526020016000206002016000888152602001908152602001600020600201600086815260200190815260200160002060010160009054906101000a900473ffffffffffffffffffffffffffffffffffffffff1673ffffffffffffffffffffffffffffffffffffffff1673ffffffffffffffffffffffffffffffffffffffff16815260200190815260200160002060008960ff1660ff168152602001908152602001600020600082825401925050819055506000600160008960ff1660ff168152602001908152602001600020600201600086815260200190815260200160002060020160008481526020019081526020016000206000018190555084600460003373ffffffffffffffffffffffffffffffffffffffff1673ffffffffffffffffffffffffffffffffffffffff16815260200190815260200160002060008282540192505081905550600160008860ff1660ff1681526020019081526020016000206002016000858152602001908152602001600020600301600081548092919060010191905055508660ff167fcbfa5edcd918ef1ec42746c71ac83c456f37330c83a22e44d6cfdca22d56471082868560405180848152602001838152602001828152602001935050505060405180910390a28083039250613004565b6000838203111515612b0657600080fd5b838302955082600360003373ffffffffffffffffffffffffffffffffffffffff1673ffffffffffffffffffffffffffffffffffffffff16815260200190815260200160002060008960ff1660ff1681526020019081526020016000205410151515612b7057600080fd5b82600360003373ffffffffffffffffffffffffffffffffffffffff1673ffffffffffffffffffffffffffffffffffffffff16815260200190815260200160002060008960ff1660ff1681526020019081526020016000206000828254039250508190555082600360003373ffffffffffffffffffffffffffffffffffffffff1673ffffffffffffffffffffffffffffffffffffffff16815260200190815260200160002060008960ff1660ff1681526020019081526020016000205410151515612c3957600080fd5b600460003373ffffffffffffffffffffffffffffffffffffffff1673ffffffffffffffffffffffffffffffffffffffff1681526020019081526020016000205486600460003373ffffffffffffffffffffffffffffffffffffffff1673ffffffffffffffffffffffffffffffffffffffff168152602001908152602001600020540110151515612cc857600080fd5b60036000600160008a60ff1660ff1681526020019081526020016000206002016000878152602001908152602001600020600201600085815260200190815260200160002060010160009054906101000a900473ffffffffffffffffffffffffffffffffffffffff1673ffffffffffffffffffffffffffffffffffffffff1673ffffffffffffffffffffffffffffffffffffffff16815260200190815260200160002060008860ff1660ff168152602001908152602001600020548360036000600160008c60ff1660ff1681526020019081526020016000206002016000898152602001908152602001600020600201600087815260200190815260200160002060010160009054906101000a900473ffffffffffffffffffffffffffffffffffffffff1673ffffffffffffffffffffffffffffffffffffffff1673ffffffffffffffffffffffffffffffffffffffff16815260200190815260200160002060008a60ff1660ff168152602001908152602001600020540110151515612e4d57600080fd5b82600160008960ff1660ff168152602001908152602001600020600201600086815260200190815260200160002060020160008481526020019081526020016000206000016000828254039250508190555085600460003373ffffffffffffffffffffffffffffffffffffffff1673ffffffffffffffffffffffffffffffffffffffff168152602001908152602001600020600082825401925050819055508260036000600160008b60ff1660ff1681526020019081526020016000206002016000888152602001908152602001600020600201600086815260200190815260200160002060010160009054906101000a900473ffffffffffffffffffffffffffffffffffffffff1673ffffffffffffffffffffffffffffffffffffffff1673ffffffffffffffffffffffffffffffffffffffff16815260200190815260200160002060008960ff1660ff168152602001908152602001600020600082825401925050819055508660ff167fcbfa5edcd918ef1ec42746c71ac83c456f37330c83a22e44d6cfdca22d56471084868560405180848152602001838152602001828152602001935050505060405180910390a2600092505b600160008860ff1660ff1681526020019081526020016000206002016000858152602001908152602001600020600401548214801561308757506000600160008960ff1660ff1681526020019081526020016000206002016000868152602001908152602001600020600201600084815260200190815260200160002060000154145b1561322757600160008860ff1660ff1681526020019081526020016000206005016000815480929190600190039190505550600160008860ff1660ff16815260200190815260200160002060020160008581526020019081526020016000206001015484148061312757506000600160008960ff1660ff168152602001908152602001600020600201600086815260200190815260200160002060010154145b15613153576000600160008960ff1660ff16815260200190815260200160002060030181905550613226565b600160008860ff1660ff168152602001908152602001600020600201600085815260200190815260200160002060010154600160008960ff1660ff16815260200190815260200160002060030181905550600160008860ff1660ff16815260200190815260200160002060030154600160008960ff1660ff1681526020019081526020016000206002016000600160008b60ff1660ff1681526020019081526020016000206002016000888152602001908152602001600020600101548152602001908152602001600020600001819055505b5b8180600101925050612522565b600160008860ff1660ff1681526020019081526020016000206003015493506124d9565b600083111561326d5761326c8a8a856121c7565b5b5b50505050505050505050565b60008061328683614b5f565b905060008160ff16141561329d57600091506132a2565b600191505b50919050565b6000806132b483614b5f565b905060008160ff161115156132c857600080fd5b80915050919050565b600460003373ffffffffffffffffffffffffffffffffffffffff1673ffffffffffffffffffffffffffffffffffffffff1681526020019081526020016000205434600460003373ffffffffffffffffffffffffffffffffffffffff1673ffffffffffffffffffffffffffffffffffffffff16815260200190815260200160002054011015151561336057600080fd5b34600460003373ffffffffffffffffffffffffffffffffffffffff1673ffffffffffffffffffffffffffffffffffffffff168152602001908152602001600020600082825401925050819055503373ffffffffffffffffffffffffffffffffffffffff167f42dbebeb8f6fb795e3007753aef2d4b1a292dd123f6de06a41050186741506373442604051808381526020018281526020019250505060405180910390a2565b6000809054906101000a900473ffffffffffffffffffffffffffffffffffffffff1673ffffffffffffffffffffffffffffffffffffffff163373ffffffffffffffffffffffffffffffffffffffff16141561363f576134638261327a565b15151561346f57600080fd5b600260009054906101000a900460ff1660ff166001600260009054906101000a900460ff160160ff161115156134a457600080fd5b6002600081819054906101000a900460ff168092919060010191906101000a81548160ff021916908360ff160217905550508160016000600260009054906101000a900460ff1660ff1660ff1681526020019081526020016000206001019080519060200190613515929190614d6c565b508060016000600260009054906101000a900460ff1660ff1660ff16815260200190815260200160002060000160006101000a81548173ffffffffffffffffffffffffffffffffffffffff021916908373ffffffffffffffffffffffffffffffffffffffff1602179055507f6c71eb76d5d82031f490d3e44dc01d298444e569078199b14510435d81b59ff7600260009054906101000a900460ff168342604051808460ff16815260200180602001838152602001828103825284818151815260200191508051906020019080838360005b838110156136025780820151818401526020810190506135e7565b50505050905090810190601f16801561362f5780820380516001836020036101000a031916815260200191505b5094505050505060405180910390a15b5050565b60008061364f846132a8565b9150600073ffffffffffffffffffffffffffffffffffffffff16600160008460ff1660ff16815260200190815260200160002060000160009054906101000a900473ffffffffffffffffffffffffffffffffffffffff1673ffffffffffffffffffffffffffffffffffffffff16141515156136c957600080fd5b600160008360ff1660ff16815260200190815260200160002060000160009054906101000a900473ffffffffffffffffffffffffffffffffffffffff169050600083600360003373ffffffffffffffffffffffffffffffffffffffff1673ffffffffffffffffffffffffffffffffffffffff16815260200190815260200160002060008560ff1660ff16815260200190815260200160002054031015151561377057600080fd5b600360003373ffffffffffffffffffffffffffffffffffffffff1673ffffffffffffffffffffffffffffffffffffffff16815260200190815260200160002060008360ff1660ff1681526020019081526020016000205483600360003373ffffffffffffffffffffffffffffffffffffffff1673ffffffffffffffffffffffffffffffffffffffff16815260200190815260200160002060008560ff1660ff16815260200190815260200160002054031115151561382d57600080fd5b82600360003373ffffffffffffffffffffffffffffffffffffffff1673ffffffffffffffffffffffffffffffffffffffff16815260200190815260200160002060008460ff1660ff16815260200190815260200160002060008282540392505081905550600115158173ffffffffffffffffffffffffffffffffffffffff1663a9059cbb33866000604051602001526040518363ffffffff167c0100000000000000000000000000000000000000000000000000000000028152600401808373ffffffffffffffffffffffffffffffffffffffff1673ffffffffffffffffffffffffffffffffffffffff16815260200182815260200192505050602060405180830381600087803b151561394057600080fd5b6102c65a03f1151561395157600080fd5b50505060405180519050151514151561396957600080fd5b8160ff163373ffffffffffffffffffffffffffffffffffffffff167faed5c5198ccd7615c0128c72fcfc060e97b14315cb791a46bf42b5b6f36c38b98542604051808381526020018281526020019250505060405180910390a350505050565b60008060006139d7876132a8565b92508515613c77573373ffffffffffffffffffffffffffffffffffffffff16600160008560ff1660ff1681526020019081526020016000206006016000878152602001908152602001600020600201600086815260200190815260200160002060010160009054906101000a900473ffffffffffffffffffffffffffffffffffffffff1673ffffffffffffffffffffffffffffffffffffffff16141515613a7d57600080fd5b600160008460ff1660ff16815260200190815260200160002060060160008681526020019081526020016000206002016000858152602001908152602001600020600001549150600360003373ffffffffffffffffffffffffffffffffffffffff1673ffffffffffffffffffffffffffffffffffffffff16815260200190815260200160002060008460ff1660ff1681526020019081526020016000205482600360003373ffffffffffffffffffffffffffffffffffffffff1673ffffffffffffffffffffffffffffffffffffffff16815260200190815260200160002060008660ff1660ff168152602001908152602001600020540110151515613b8157600080fd5b81600360003373ffffffffffffffffffffffffffffffffffffffff1673ffffffffffffffffffffffffffffffffffffffff16815260200190815260200160002060008560ff1660ff168152602001908152602001600020600082825401925050819055506000600160008560ff1660ff16815260200190815260200160002060060160008781526020019081526020016000206002016000868152602001908152602001600020600001819055508260ff167fffac5f4941e92bc6814610a825eeff0ae9bb4a17d47c0e2353c6889b2b550fb88686604051808381526020018281526020019250505060405180910390a2613ec8565b3373ffffffffffffffffffffffffffffffffffffffff16600160008560ff1660ff1681526020019081526020016000206002016000878152602001908152602001600020600201600086815260200190815260200160002060010160009054906101000a900473ffffffffffffffffffffffffffffffffffffffff1673ffffffffffffffffffffffffffffffffffffffff16141515613d1557600080fd5b84600160008560ff1660ff1681526020019081526020016000206002016000878152602001908152602001600020600201600086815260200190815260200160002060000154029050600460003373ffffffffffffffffffffffffffffffffffffffff1673ffffffffffffffffffffffffffffffffffffffff1681526020019081526020016000205481600460003373ffffffffffffffffffffffffffffffffffffffff1673ffffffffffffffffffffffffffffffffffffffff168152602001908152602001600020540110151515613ded57600080fd5b80600460003373ffffffffffffffffffffffffffffffffffffffff1673ffffffffffffffffffffffffffffffffffffffff168152602001908152602001600020600082825401925050819055506000600160008560ff1660ff16815260200190815260200160002060020160008781526020019081526020016000206002016000868152602001908152602001600020600001819055508260ff167f5f2fdca15d8ab2ad3f590066add3054471b3603ca44a66f12e124e9c97ec19558686604051808381526020018281526020019250505060405180910390a25b50505050505050565b600080600080600160008960ff1660ff16815260200190815260200160002060020160008881526020019081526020016000206004016000815480929190600101919050555060408051908101604052808781526020018673ffffffffffffffffffffffffffffffffffffffff16815250600160008a60ff1660ff16815260200190815260200160002060020160008981526020019081526020016000206002016000600160008c60ff1660ff16815260200190815260200160002060020160008b81526020019081526020016000206004015481526020019081526020016000206000820151816000015560208201518160010160006101000a81548173ffffffffffffffffffffffffffffffffffffffff021916908373ffffffffffffffffffffffffffffffffffffffff16021790555090505060018060008a60ff1660ff168152602001908152602001600020600201600089815260200190815260200160002060040154141561450d5760018060008a60ff1660ff168152602001908152602001600020600201600089815260200190815260200160002060030181905550600160008960ff1660ff16815260200190815260200160002060050160008154809291906001019190505550600160008960ff1660ff168152602001908152602001600020600301549350600160008960ff1660ff16815260200190815260200160002060040154925060008314806140ec57508683115b1561425257600084141561418b5786600160008a60ff1660ff1681526020019081526020016000206003018190555086600160008a60ff1660ff1681526020019081526020016000206002016000898152602001908152602001600020600001819055506000600160008a60ff1660ff16815260200190815260200160002060020160008981526020019081526020016000206001018190555061422c565b86600160008a60ff1660ff16815260200190815260200160002060020160008581526020019081526020016000206001018190555082600160008a60ff1660ff1681526020019081526020016000206002016000898152602001908152602001600020600001819055506000600160008a60ff1660ff1681526020019081526020016000206002016000898152602001908152602001600020600101819055505b86600160008a60ff1660ff1681526020019081526020016000206004018190555061450c565b8684101561431f5786600160008a60ff1660ff16815260200190815260200160002060020160008681526020019081526020016000206000018190555086600160008a60ff1660ff16815260200190815260200160002060020160008981526020019081526020016000206000018190555083600160008a60ff1660ff16815260200190815260200160002060020160008981526020019081526020016000206001018190555086600160008a60ff1660ff1681526020019081526020016000206003018190555061450b565b600160008960ff1660ff168152602001908152602001600020600301549150600090505b600082118015614351575080155b1561450a578682108015614394575086600160008a60ff1660ff168152602001908152602001600020600201600084815260200190815260200160002060000154115b156144d25781600160008a60ff1660ff168152602001908152602001600020600201600089815260200190815260200160002060010181905550600160008960ff1660ff168152602001908152602001600020600201600083815260200190815260200160002060000154600160008a60ff1660ff16815260200190815260200160002060020160008981526020019081526020016000206000018190555086600160008a60ff1660ff1681526020019081526020016000206002016000600160008c60ff1660ff16815260200190815260200160002060020160008681526020019081526020016000206000015481526020019081526020016000206001018190555086600160008a60ff1660ff168152602001908152602001600020600201600084815260200190815260200160002060000181905550600190505b600160008960ff1660ff1681526020019081526020016000206002016000838152602001908152602001600020600101549150614343565b5b5b5b5050505050505050565b600080600080600160008960ff1660ff16815260200190815260200160002060060160008881526020019081526020016000206004016000815480929190600101919050555060408051908101604052808781526020018673ffffffffffffffffffffffffffffffffffffffff16815250600160008a60ff1660ff16815260200190815260200160002060060160008981526020019081526020016000206002016000600160008c60ff1660ff16815260200190815260200160002060060160008b81526020019081526020016000206004015481526020019081526020016000206000820151816000015560208201518160010160006101000a81548173ffffffffffffffffffffffffffffffffffffffff021916908373ffffffffffffffffffffffffffffffffffffffff16021790555090505060018060008a60ff1660ff1681526020019081526020016000206006016000898152602001908152602001600020600401541415614b555760018060008a60ff1660ff168152602001908152602001600020600601600089815260200190815260200160002060030181905550600160008960ff1660ff16815260200190815260200160002060090160008154809291906001019190505550600160008960ff1660ff168152602001908152602001600020600701549350600160008960ff1660ff168152602001908152602001600020600801549250600083148061473257508683105b156148995760008414156147d25786600160008a60ff1660ff168152602001908152602001600020600701819055506000600160008a60ff1660ff1681526020019081526020016000206006016000898152602001908152602001600020600001819055506000600160008a60ff1660ff168152602001908152602001600020600601600089815260200190815260200160002060010181905550614873565b86600160008a60ff1660ff16815260200190815260200160002060060160008581526020019081526020016000206000018190555082600160008a60ff1660ff1681526020019081526020016000206006016000898152602001908152602001600020600101819055506000600160008a60ff1660ff1681526020019081526020016000206006016000898152602001908152602001600020600001819055505b86600160008a60ff1660ff16815260200190815260200160002060080181905550614b54565b868411156149675786600160008a60ff1660ff16815260200190815260200160002060060160008681526020019081526020016000206001018190555083600160008a60ff1660ff1681526020019081526020016000206006016000898152602001908152602001600020600001819055506000600160008a60ff1660ff16815260200190815260200160002060060160008981526020019081526020016000206001018190555086600160008a60ff1660ff16815260200190815260200160002060070181905550614b53565b600160008960ff1660ff168152602001908152602001600020600701549150600090505b600082118015614999575080155b15614b525786821080156149dc575086600160008a60ff1660ff168152602001908152602001600020600601600084815260200190815260200160002060000154115b15614b1a5781600160008a60ff1660ff168152602001908152602001600020600601600089815260200190815260200160002060010181905550600160008960ff1660ff168152602001908152602001600020600601600083815260200190815260200160002060000154600160008a60ff1660ff16815260200190815260200160002060060160008981526020019081526020016000206000018190555086600160008a60ff1660ff1681526020019081526020016000206006016000600160008c60ff1660ff16815260200190815260200160002060060160008681526020019081526020016000206000015481526020019081526020016000206001018190555086600160008a60ff1660ff168152602001908152602001600020600601600084815260200190815260200160002060000181905550600190505b600160008960ff1660ff168152602001908152602001600020600601600083815260200190815260200160002060000154915061498b565b5b5b5b5050505050505050565b600080600190505b600260009054906101000a900460ff1660ff168160ff16111515614bc457614baa600160008360ff1660ff16815260200190815260200160002060010184614bcf565b15614bb757809150614bc9565b8080600101915050614b67565b600091505b50919050565b600080614bda614dec565b6000859250849150815183805460018160011615610100020316600290049050141515614c0a5760009350614d4f565b600090505b82805460018160011615610100020316600290049050811015614d4a578181815181101515614c3a57fe5b9060200101517f010000000000000000000000000000000000000000000000000000000000000090047f0100000000000000000000000000000000000000000000000000000000000000027effffffffffffffffffffffffffffffffffffffffffffffffffffffffffffff191683828154600181600116156101000203166002900481101515614cc657fe5b815460011615614ce55790600052602060002090602091828204019190065b9054901a7f0100000000000000000000000000000000000000000000000000000000000000027effffffffffffffffffffffffffffffffffffffffffffffffffffffffffffff1916141515614d3d5760009350614d4f565b8080600101915050614c0f565b600193505b50505092915050565b602060405190810160405280600081525090565b828054600181600116156101000203166002900490600052602060002090601f016020900481019282601f10614dad57805160ff1916838001178555614ddb565b82800160010185558215614ddb579182015b82811115614dda578251825591602001919060010190614dbf565b5b509050614de89190614e00565b5090565b602060405190810160405280600081525090565b614e2291905b80821115614e1e576000816000905550600101614e06565b5090565b905600a165627a7a723058201f41c6f2bf080ddff94642b9a7fe3c26abc07599f2dccc77f585a3fe768cb7520029",
  "source": "pragma solidity ^0.4.13;\n\n\nimport \"./owned.sol\";\nimport \"./FixedSupplyToken.sol\";\n\n\ncontract Exchange is owned {\n\n    ///////////////////////\n    // GENERAL STRUCTURE //\n    ///////////////////////\n    struct Offer {\n\n    uint amount;\n    address who;\n    }\n\n    struct OrderBook {\n\n    uint higherPrice;\n    uint lowerPrice;\n\n    mapping (uint => Offer) offers;\n\n    uint offers_key;\n    uint offers_length;\n    }\n\n    struct Token {\n\n    address tokenContract;\n\n    string symbolName;\n\n\n    mapping (uint => OrderBook) buyBook;\n\n    uint curBuyPrice;\n    uint lowestBuyPrice;\n    uint amountBuyPrices;\n\n\n    mapping (uint => OrderBook) sellBook;\n    uint curSellPrice;\n    uint highestSellPrice;\n    uint amountSellPrices;\n\n    }\n\n\n    //we support a max of 255 tokens...\n    mapping (uint8 => Token) tokens;\n\n    uint8 symbolNameIndex;\n\n\n    //////////////\n    // BALANCES //\n    //////////////\n    mapping (address => mapping (uint8 => uint)) tokenBalanceForAddress;\n\n    mapping (address => uint) balanceEthForAddress;\n\n\n\n\n    ////////////\n    // EVENTS //\n    ////////////\n\n    //EVENTS for Deposit/withdrawal\n    event DepositForTokenReceived(address indexed _from, uint indexed _symbolIndex, uint _amount, uint _timestamp);\n\n    event WithdrawalToken(address indexed _to, uint indexed _symbolIndex, uint _amount, uint _timestamp);\n\n    event DepositForEthReceived(address indexed _from, uint _amount, uint _timestamp);\n\n    event WithdrawalEth(address indexed _to, uint _amount, uint _timestamp);\n\n    //events for orders\n    event LimitSellOrderCreated(uint indexed _symbolIndex, address indexed _who, uint _amountTokens, uint _priceInWei, uint _orderKey);\n\n    event SellOrderFulfilled(uint indexed _symbolIndex, uint _amount, uint _priceInWei, uint _orderKey);\n\n    event SellOrderCanceled(uint indexed _symbolIndex, uint _priceInWei, uint _orderKey);\n\n    event LimitBuyOrderCreated(uint indexed _symbolIndex, address indexed _who, uint _amountTokens, uint _priceInWei, uint _orderKey);\n\n    event BuyOrderFulfilled(uint indexed _symbolIndex, uint _amount, uint _priceInWei, uint _orderKey);\n\n    event BuyOrderCanceled(uint indexed _symbolIndex, uint _priceInWei, uint _orderKey);\n\n    //events for management\n    event TokenAddedToSystem(uint _symbolIndex, string _token, uint _timestamp);\n\n\n\n    //////////////////////////////////\n    // DEPOSIT AND WITHDRAWAL ETHER //\n    //////////////////////////////////\n    function depositEther() payable {\n        require(balanceEthForAddress[msg.sender] + msg.value >= balanceEthForAddress[msg.sender]);\n        balanceEthForAddress[msg.sender] += msg.value;\n        DepositForEthReceived(msg.sender, msg.value, now);\n    }\n\n    function withdrawEther(uint amountInWei) {\n        require(balanceEthForAddress[msg.sender] - amountInWei >= 0);\n        require(balanceEthForAddress[msg.sender] - amountInWei <= balanceEthForAddress[msg.sender]);\n        balanceEthForAddress[msg.sender] -= amountInWei;\n        msg.sender.transfer(amountInWei);\n        WithdrawalEth(msg.sender, amountInWei, now);\n    }\n\n    function getEthBalanceInWei() constant returns (uint){\n        return balanceEthForAddress[msg.sender];\n    }\n\n\n    //////////////////////\n    // TOKEN MANAGEMENT //\n    //////////////////////\n\n    function addToken(string symbolName, address erc20TokenAddress) onlyowner {\n        require(!hasToken(symbolName));\n        require(symbolNameIndex + 1 > symbolNameIndex);\n        symbolNameIndex++;\n\n        tokens[symbolNameIndex].symbolName = symbolName;\n        tokens[symbolNameIndex].tokenContract = erc20TokenAddress;\n        TokenAddedToSystem(symbolNameIndex, symbolName, now);\n    }\n\n    function hasToken(string symbolName) constant returns (bool) {\n        uint8 index = getSymbolIndex(symbolName);\n        if (index == 0) {\n            return false;\n        }\n        return true;\n    }\n\n\n    function getSymbolIndex(string symbolName) internal returns (uint8) {\n        for (uint8 i = 1; i <= symbolNameIndex; i++) {\n            if (stringsEqual(tokens[i].symbolName, symbolName)) {\n                return i;\n            }\n        }\n        return 0;\n    }\n\n\n    function getSymbolIndexOrThrow(string symbolName) returns (uint8) {\n        uint8 index = getSymbolIndex(symbolName);\n        require(index > 0);\n        return index;\n    }\n\n\n\n\n\n\n\n    //////////////////////////////////\n    // DEPOSIT AND WITHDRAWAL TOKEN //\n    //////////////////////////////////\n    function depositToken(string symbolName, uint amount) {\n        uint8 symbolNameIndex = getSymbolIndexOrThrow(symbolName);\n        require(tokens[symbolNameIndex].tokenContract != address(0));\n\n        ERC20Interface token = ERC20Interface(tokens[symbolNameIndex].tokenContract);\n\n        require(token.transferFrom(msg.sender, address(this), amount) == true);\n        require(tokenBalanceForAddress[msg.sender][symbolNameIndex] + amount >= tokenBalanceForAddress[msg.sender][symbolNameIndex]);\n        tokenBalanceForAddress[msg.sender][symbolNameIndex] += amount;\n        DepositForTokenReceived(msg.sender, symbolNameIndex, amount, now);\n    }\n\n    function withdrawToken(string symbolName, uint amount) {\n        uint8 symbolNameIndex = getSymbolIndexOrThrow(symbolName);\n        require(tokens[symbolNameIndex].tokenContract != address(0));\n\n        ERC20Interface token = ERC20Interface(tokens[symbolNameIndex].tokenContract);\n\n        require(tokenBalanceForAddress[msg.sender][symbolNameIndex] - amount >= 0);\n        require(tokenBalanceForAddress[msg.sender][symbolNameIndex] - amount <= tokenBalanceForAddress[msg.sender][symbolNameIndex]);\n\n        tokenBalanceForAddress[msg.sender][symbolNameIndex] -= amount;\n        require(token.transfer(msg.sender, amount) == true);\n        WithdrawalToken(msg.sender, symbolNameIndex, amount, now);\n    }\n\n    function getBalance(string symbolName) constant returns (uint) {\n        uint8 symbolNameIndex = getSymbolIndexOrThrow(symbolName);\n        return tokenBalanceForAddress[msg.sender][symbolNameIndex];\n    }\n\n\n\n    /////////////////////////////\n    // ORDER BOOK - BID ORDERS //\n    /////////////////////////////\n    function getBuyOrderBook(string symbolName) constant returns (uint[], uint[]) {\n        uint8 tokenNameIndex = getSymbolIndexOrThrow(symbolName);\n        uint[] memory arrPricesBuy = new uint[](tokens[tokenNameIndex].amountBuyPrices);\n        uint[] memory arrVolumesBuy = new uint[](tokens[tokenNameIndex].amountBuyPrices);\n\n        uint whilePrice = tokens[tokenNameIndex].lowestBuyPrice;\n        uint counter = 0;\n        if (tokens[tokenNameIndex].curBuyPrice > 0) {\n            while (whilePrice <= tokens[tokenNameIndex].curBuyPrice) {\n                arrPricesBuy[counter] = whilePrice;\n                uint volumeAtPrice = 0;\n                uint offers_key = 0;\n\n                offers_key = tokens[tokenNameIndex].buyBook[whilePrice].offers_key;\n                while (offers_key <= tokens[tokenNameIndex].buyBook[whilePrice].offers_length) {\n                    volumeAtPrice += tokens[tokenNameIndex].buyBook[whilePrice].offers[offers_key].amount;\n                    offers_key++;\n                }\n\n                arrVolumesBuy[counter] = volumeAtPrice;\n\n                //next whilePrice\n                if (whilePrice == tokens[tokenNameIndex].buyBook[whilePrice].higherPrice) {\n                    break;\n                }\n                else {\n                    whilePrice = tokens[tokenNameIndex].buyBook[whilePrice].higherPrice;\n                }\n                counter++;\n\n            }\n        }\n\n        return (arrPricesBuy, arrVolumesBuy);\n\n    }\n\n\n    /////////////////////////////\n    // ORDER BOOK - ASK ORDERS //\n    /////////////////////////////\n    function getSellOrderBook(string symbolName) constant returns (uint[], uint[]) {\n        uint8 tokenNameIndex = getSymbolIndexOrThrow(symbolName);\n        uint[] memory arrPricesSell = new uint[](tokens[tokenNameIndex].amountSellPrices);\n        uint[] memory arrVolumesSell = new uint[](tokens[tokenNameIndex].amountSellPrices);\n        uint sellWhilePrice = tokens[tokenNameIndex].curSellPrice;\n        uint sellCounter = 0;\n        if (tokens[tokenNameIndex].curSellPrice > 0) {\n            while (sellWhilePrice <= tokens[tokenNameIndex].highestSellPrice) {\n                arrPricesSell[sellCounter] = sellWhilePrice;\n                uint sellVolumeAtPrice = 0;\n                uint sell_offers_key = 0;\n\n                sell_offers_key = tokens[tokenNameIndex].sellBook[sellWhilePrice].offers_key;\n                while (sell_offers_key <= tokens[tokenNameIndex].sellBook[sellWhilePrice].offers_length) {\n                    sellVolumeAtPrice += tokens[tokenNameIndex].sellBook[sellWhilePrice].offers[sell_offers_key].amount;\n                    sell_offers_key++;\n                }\n\n                arrVolumesSell[sellCounter] = sellVolumeAtPrice;\n\n                //next whilePrice\n                if (tokens[tokenNameIndex].sellBook[sellWhilePrice].higherPrice == 0) {\n                    break;\n                }\n                else {\n                    sellWhilePrice = tokens[tokenNameIndex].sellBook[sellWhilePrice].higherPrice;\n                }\n                sellCounter++;\n\n            }\n        }\n\n        //sell part\n        return (arrPricesSell, arrVolumesSell);\n    }\n\n\n\n\n\n    ////////////////////////////\n    // NEW ORDER - BID ORDER //\n    ///////////////////////////\n    function buyToken(string symbolName, uint priceInWei, uint amount) {\n        uint8 tokenNameIndex = getSymbolIndexOrThrow(symbolName);\n        uint total_amount_ether_necessary = 0;\n\n        if (tokens[tokenNameIndex].amountSellPrices == 0 || tokens[tokenNameIndex].curSellPrice > priceInWei) {\n            //if we have enough ether, we can buy that:\n            total_amount_ether_necessary = amount * priceInWei;\n\n            //overflow check\n            require(total_amount_ether_necessary >= amount);\n            require(total_amount_ether_necessary >= priceInWei);\n            require(balanceEthForAddress[msg.sender] >= total_amount_ether_necessary);\n            require(balanceEthForAddress[msg.sender] - total_amount_ether_necessary >= 0);\n            require(balanceEthForAddress[msg.sender] - total_amount_ether_necessary <= balanceEthForAddress[msg.sender]);\n\n            //first deduct the amount of ether from our balance\n            balanceEthForAddress[msg.sender] -= total_amount_ether_necessary;\n\n            //limit order: we don't have enough offers to fulfill the amount\n\n            //add the order to the orderBook\n            addBuyOffer(tokenNameIndex, priceInWei, amount, msg.sender);\n            //and emit the event.\n            LimitBuyOrderCreated(tokenNameIndex, msg.sender, amount, priceInWei, tokens[tokenNameIndex].buyBook[priceInWei].offers_length);\n        }\n        else {\n            //market order: current sell price is smaller or equal to buy price!\n\n            //1st: find the \"cheapest sell price\" that is lower than the buy amount  [buy: 60@5000] [sell: 50@4500] [sell: 5@5000]\n            //2: buy up the volume for 4500\n            //3: buy up the volume for 5000\n            //if still something remaining -> buyToken\n\n            //2: buy up the volume\n            //2.1 add ether to seller, add symbolName to buyer until offers_key <= offers_length\n\n            uint total_amount_ether_available = 0;\n            uint whilePrice = tokens[tokenNameIndex].curSellPrice;\n            uint amountNecessary = amount;\n            uint offers_key;\n            while (whilePrice <= priceInWei && amountNecessary > 0) {//we start with the smallest sell price.\n                offers_key = tokens[tokenNameIndex].sellBook[whilePrice].offers_key;\n                while (offers_key <= tokens[tokenNameIndex].sellBook[whilePrice].offers_length && amountNecessary > 0) {//and the first order (FIFO)\n                    uint volumeAtPriceFromAddress = tokens[tokenNameIndex].sellBook[whilePrice].offers[offers_key].amount;\n\n                    //Two choices from here:\n                    //1) one person offers not enough volume to fulfill the market order - we use it up completely and move on to the next person who offers the symbolName\n                    //2) else: we make use of parts of what a person is offering - lower his amount, fulfill out order.\n                    if (volumeAtPriceFromAddress <= amountNecessary) {\n                        total_amount_ether_available = volumeAtPriceFromAddress * whilePrice;\n\n                        require(balanceEthForAddress[msg.sender] >= total_amount_ether_available);\n                        require(balanceEthForAddress[msg.sender] - total_amount_ether_available <= balanceEthForAddress[msg.sender]);\n                        //first deduct the amount of ether from our balance\n                        balanceEthForAddress[msg.sender] -= total_amount_ether_available;\n\n                        require(tokenBalanceForAddress[msg.sender][tokenNameIndex] + volumeAtPriceFromAddress >= tokenBalanceForAddress[msg.sender][tokenNameIndex]);\n                        require(balanceEthForAddress[tokens[tokenNameIndex].sellBook[whilePrice].offers[offers_key].who] + total_amount_ether_available >= balanceEthForAddress[tokens[tokenNameIndex].sellBook[whilePrice].offers[offers_key].who]);\n                        //overflow check\n                        //this guy offers less or equal the volume that we ask for, so we use it up completely.\n                        tokenBalanceForAddress[msg.sender][tokenNameIndex] += volumeAtPriceFromAddress;\n                        tokens[tokenNameIndex].sellBook[whilePrice].offers[offers_key].amount = 0;\n                        balanceEthForAddress[tokens[tokenNameIndex].sellBook[whilePrice].offers[offers_key].who] += total_amount_ether_available;\n                        tokens[tokenNameIndex].sellBook[whilePrice].offers_key++;\n\n                        SellOrderFulfilled(tokenNameIndex, volumeAtPriceFromAddress, whilePrice, offers_key);\n\n                        amountNecessary -= volumeAtPriceFromAddress;\n                    }\n                    else {\n                        require(tokens[tokenNameIndex].sellBook[whilePrice].offers[offers_key].amount > amountNecessary);//sanity\n\n                        total_amount_ether_necessary = amountNecessary * whilePrice;\n                        require(balanceEthForAddress[msg.sender] - total_amount_ether_necessary <= balanceEthForAddress[msg.sender]);\n\n                        //first deduct the amount of ether from our balance\n                        balanceEthForAddress[msg.sender] -= total_amount_ether_necessary;\n\n                        require(balanceEthForAddress[tokens[tokenNameIndex].sellBook[whilePrice].offers[offers_key].who] + total_amount_ether_necessary >= balanceEthForAddress[tokens[tokenNameIndex].sellBook[whilePrice].offers[offers_key].who]);\n                        //overflow check\n                        //this guy offers more than we ask for. We reduce his stack, add the tokens to us and the ether to him.\n                        tokens[tokenNameIndex].sellBook[whilePrice].offers[offers_key].amount -= amountNecessary;\n                        balanceEthForAddress[tokens[tokenNameIndex].sellBook[whilePrice].offers[offers_key].who] += total_amount_ether_necessary;\n                        tokenBalanceForAddress[msg.sender][tokenNameIndex] += amountNecessary;\n\n                        amountNecessary = 0;\n                        //we have fulfilled our order\n                        SellOrderFulfilled(tokenNameIndex, amountNecessary, whilePrice, offers_key);\n                    }\n\n                    //if it was the last offer for that price, we have to set the curBuyPrice now lower. Additionally we have one offer less...\n                    if (\n                    offers_key == tokens[tokenNameIndex].sellBook[whilePrice].offers_length &&\n                    tokens[tokenNameIndex].sellBook[whilePrice].offers[offers_key].amount == 0\n                    ) {\n\n                        tokens[tokenNameIndex].amountSellPrices--;\n                        //we have one price offer less here...\n                        //next whilePrice\n                        if (whilePrice == tokens[tokenNameIndex].sellBook[whilePrice].higherPrice || tokens[tokenNameIndex].buyBook[whilePrice].higherPrice == 0) {\n                            tokens[tokenNameIndex].curSellPrice = 0;\n                            //we have reached the last price\n                        }\n                        else {\n                            tokens[tokenNameIndex].curSellPrice = tokens[tokenNameIndex].sellBook[whilePrice].higherPrice;\n                            tokens[tokenNameIndex].sellBook[tokens[tokenNameIndex].buyBook[whilePrice].higherPrice].lowerPrice = 0;\n                        }\n                    }\n                    offers_key++;\n                }\n\n                //we set the curSellPrice again, since when the volume is used up for a lowest price the curSellPrice is set there...\n                whilePrice = tokens[tokenNameIndex].curSellPrice;\n            }\n\n            if (amountNecessary > 0) {\n                buyToken(symbolName, priceInWei, amountNecessary);\n                //add a limit order!\n            }\n        }\n    }\n\n\n    ///////////////////////////\n    // BID LIMIT ORDER LOGIC //\n    ///////////////////////////\n    function addBuyOffer(uint8 tokenIndex, uint priceInWei, uint amount, address who) internal {\n        tokens[tokenIndex].buyBook[priceInWei].offers_length++;\n        tokens[tokenIndex].buyBook[priceInWei].offers[tokens[tokenIndex].buyBook[priceInWei].offers_length] = Offer(amount, who);\n\n\n        if (tokens[tokenIndex].buyBook[priceInWei].offers_length == 1) {\n            tokens[tokenIndex].buyBook[priceInWei].offers_key = 1;\n            //we have a new buy order - increase the counter, so we can set the getOrderBook array later\n            tokens[tokenIndex].amountBuyPrices++;\n\n\n            //lowerPrice and higherPrice have to be set\n            uint curBuyPrice = tokens[tokenIndex].curBuyPrice;\n\n            uint lowestBuyPrice = tokens[tokenIndex].lowestBuyPrice;\n            if (lowestBuyPrice == 0 || lowestBuyPrice > priceInWei) {\n                if (curBuyPrice == 0) {\n                    //there is no buy order yet, we insert the first one...\n                    tokens[tokenIndex].curBuyPrice = priceInWei;\n                    tokens[tokenIndex].buyBook[priceInWei].higherPrice = priceInWei;\n                    tokens[tokenIndex].buyBook[priceInWei].lowerPrice = 0;\n                }\n                else {\n                    //or the lowest one\n                    tokens[tokenIndex].buyBook[lowestBuyPrice].lowerPrice = priceInWei;\n                    tokens[tokenIndex].buyBook[priceInWei].higherPrice = lowestBuyPrice;\n                    tokens[tokenIndex].buyBook[priceInWei].lowerPrice = 0;\n                }\n                tokens[tokenIndex].lowestBuyPrice = priceInWei;\n            }\n            else if (curBuyPrice < priceInWei) {\n                //the offer to buy is the highest one, we don't need to find the right spot\n                tokens[tokenIndex].buyBook[curBuyPrice].higherPrice = priceInWei;\n                tokens[tokenIndex].buyBook[priceInWei].higherPrice = priceInWei;\n                tokens[tokenIndex].buyBook[priceInWei].lowerPrice = curBuyPrice;\n                tokens[tokenIndex].curBuyPrice = priceInWei;\n\n            }\n            else {\n                //we are somewhere in the middle, we need to find the right spot first...\n\n                uint buyPrice = tokens[tokenIndex].curBuyPrice;\n                bool weFoundIt = false;\n                while (buyPrice > 0 && !weFoundIt) {\n                    if (\n                    buyPrice < priceInWei &&\n                    tokens[tokenIndex].buyBook[buyPrice].higherPrice > priceInWei\n                    ) {\n                        //set the new order-book entry higher/lowerPrice first right\n                        tokens[tokenIndex].buyBook[priceInWei].lowerPrice = buyPrice;\n                        tokens[tokenIndex].buyBook[priceInWei].higherPrice = tokens[tokenIndex].buyBook[buyPrice].higherPrice;\n\n                        //set the higherPrice'd order-book entries lowerPrice to the current Price\n                        tokens[tokenIndex].buyBook[tokens[tokenIndex].buyBook[buyPrice].higherPrice].lowerPrice = priceInWei;\n                        //set the lowerPrice'd order-book entries higherPrice to the current Price\n                        tokens[tokenIndex].buyBook[buyPrice].higherPrice = priceInWei;\n\n                        //set we found it.\n                        weFoundIt = true;\n                    }\n                    buyPrice = tokens[tokenIndex].buyBook[buyPrice].lowerPrice;\n                }\n            }\n        }\n    }\n\n\n\n\n    ////////////////////////////\n    // NEW ORDER - ASK ORDER //\n    ///////////////////////////\n    function sellToken(string symbolName, uint priceInWei, uint amount) {\n        uint8 tokenNameIndex = getSymbolIndexOrThrow(symbolName);\n        uint total_amount_ether_necessary = 0;\n        uint total_amount_ether_available = 0;\n\n\n        if (tokens[tokenNameIndex].amountBuyPrices == 0 || tokens[tokenNameIndex].curBuyPrice < priceInWei) {\n\n            //if we have enough ether, we can buy that:\n            total_amount_ether_necessary = amount * priceInWei;\n\n            //overflow check\n            require(total_amount_ether_necessary >= amount);\n            require(total_amount_ether_necessary >= priceInWei);\n            require(tokenBalanceForAddress[msg.sender][tokenNameIndex] >= amount);\n            require(tokenBalanceForAddress[msg.sender][tokenNameIndex] - amount >= 0);\n            require(balanceEthForAddress[msg.sender] + total_amount_ether_necessary >= balanceEthForAddress[msg.sender]);\n\n            //actually subtract the amount of tokens to change it then\n            tokenBalanceForAddress[msg.sender][tokenNameIndex] -= amount;\n\n            //limit order: we don't have enough offers to fulfill the amount\n\n            //add the order to the orderBook\n            addSellOffer(tokenNameIndex, priceInWei, amount, msg.sender);\n            //and emit the event.\n            LimitSellOrderCreated(tokenNameIndex, msg.sender, amount, priceInWei, tokens[tokenNameIndex].sellBook[priceInWei].offers_length);\n\n        }\n        else {\n            //market order: current buy price is bigger or equal to sell price!\n\n            //1st: find the \"highest buy price\" that is higher than the sell amount  [buy: 60@5000] [buy: 50@4500] [sell: 500@4000]\n            //2: sell up the volume for 5000\n            //3: sell up the volume for 4500\n            //if still something remaining -> sellToken limit order\n\n            //2: sell up the volume\n            //2.1 add ether to seller, add symbolName to buyer until offers_key <= offers_length\n\n\n            uint whilePrice = tokens[tokenNameIndex].curBuyPrice;\n            uint amountNecessary = amount;\n            uint offers_key;\n            while (whilePrice >= priceInWei && amountNecessary > 0) {//we start with the highest buy price.\n                offers_key = tokens[tokenNameIndex].buyBook[whilePrice].offers_key;\n                while (offers_key <= tokens[tokenNameIndex].buyBook[whilePrice].offers_length && amountNecessary > 0) {//and the first order (FIFO)\n                    uint volumeAtPriceFromAddress = tokens[tokenNameIndex].buyBook[whilePrice].offers[offers_key].amount;\n\n\n                    //Two choices from here:\n                    //1) one person offers not enough volume to fulfill the market order - we use it up completely and move on to the next person who offers the symbolName\n                    //2) else: we make use of parts of what a person is offering - lower his amount, fulfill out order.\n                    if (volumeAtPriceFromAddress <= amountNecessary) {\n                        total_amount_ether_available = volumeAtPriceFromAddress * whilePrice;\n\n\n                        //overflow check\n                        require(tokenBalanceForAddress[msg.sender][tokenNameIndex] >= volumeAtPriceFromAddress);\n                        //actually subtract the amount of tokens to change it then\n                        tokenBalanceForAddress[msg.sender][tokenNameIndex] -= volumeAtPriceFromAddress;\n\n                        //overflow check\n                        require(tokenBalanceForAddress[msg.sender][tokenNameIndex] - volumeAtPriceFromAddress >= 0);\n                        require(tokenBalanceForAddress[tokens[tokenNameIndex].buyBook[whilePrice].offers[offers_key].who][tokenNameIndex] + volumeAtPriceFromAddress >= tokenBalanceForAddress[tokens[tokenNameIndex].buyBook[whilePrice].offers[offers_key].who][tokenNameIndex]);\n                        require(balanceEthForAddress[msg.sender] + total_amount_ether_available >= balanceEthForAddress[msg.sender]);\n\n                        //this guy offers less or equal the volume that we ask for, so we use it up completely.\n                        tokenBalanceForAddress[tokens[tokenNameIndex].buyBook[whilePrice].offers[offers_key].who][tokenNameIndex] += volumeAtPriceFromAddress;\n                        tokens[tokenNameIndex].buyBook[whilePrice].offers[offers_key].amount = 0;\n                        balanceEthForAddress[msg.sender] += total_amount_ether_available;\n                        tokens[tokenNameIndex].buyBook[whilePrice].offers_key++;\n                        SellOrderFulfilled(tokenNameIndex, volumeAtPriceFromAddress, whilePrice, offers_key);\n\n\n                        amountNecessary -= volumeAtPriceFromAddress;\n                    }\n                    else {\n                        require(volumeAtPriceFromAddress - amountNecessary > 0);\n                        //just for sanity\n                        total_amount_ether_necessary = amountNecessary * whilePrice;\n                        //we take the rest of the outstanding amount\n\n                        //overflow check\n                        require(tokenBalanceForAddress[msg.sender][tokenNameIndex] >= amountNecessary);\n                        //actually subtract the amount of tokens to change it then\n                        tokenBalanceForAddress[msg.sender][tokenNameIndex] -= amountNecessary;\n\n                        //overflow check\n                        require(tokenBalanceForAddress[msg.sender][tokenNameIndex] >= amountNecessary);\n                        require(balanceEthForAddress[msg.sender] + total_amount_ether_necessary >= balanceEthForAddress[msg.sender]);\n                        require(tokenBalanceForAddress[tokens[tokenNameIndex].buyBook[whilePrice].offers[offers_key].who][tokenNameIndex] + amountNecessary >= tokenBalanceForAddress[tokens[tokenNameIndex].buyBook[whilePrice].offers[offers_key].who][tokenNameIndex]);\n\n                        //this guy offers more than we ask for. We reduce his stack, add the eth to us and the symbolName to him.\n                        tokens[tokenNameIndex].buyBook[whilePrice].offers[offers_key].amount -= amountNecessary;\n                        balanceEthForAddress[msg.sender] += total_amount_ether_necessary;\n                        tokenBalanceForAddress[tokens[tokenNameIndex].buyBook[whilePrice].offers[offers_key].who][tokenNameIndex] += amountNecessary;\n\n                        SellOrderFulfilled(tokenNameIndex, amountNecessary, whilePrice, offers_key);\n\n                        amountNecessary = 0;\n                        //we have fulfilled our order\n                    }\n\n                    //if it was the last offer for that price, we have to set the curBuyPrice now lower. Additionally we have one offer less...\n                    if (\n                    offers_key == tokens[tokenNameIndex].buyBook[whilePrice].offers_length &&\n                    tokens[tokenNameIndex].buyBook[whilePrice].offers[offers_key].amount == 0\n                    ) {\n\n                        tokens[tokenNameIndex].amountBuyPrices--;\n                        //we have one price offer less here...\n                        //next whilePrice\n                        if (whilePrice == tokens[tokenNameIndex].buyBook[whilePrice].lowerPrice || tokens[tokenNameIndex].buyBook[whilePrice].lowerPrice == 0) {\n                            tokens[tokenNameIndex].curBuyPrice = 0;\n                            //we have reached the last price\n                        }\n                        else {\n                            tokens[tokenNameIndex].curBuyPrice = tokens[tokenNameIndex].buyBook[whilePrice].lowerPrice;\n                            tokens[tokenNameIndex].buyBook[tokens[tokenNameIndex].buyBook[whilePrice].lowerPrice].higherPrice = tokens[tokenNameIndex].curBuyPrice;\n                        }\n                    }\n                    offers_key++;\n                }\n\n                //we set the curSellPrice again, since when the volume is used up for a lowest price the curSellPrice is set there...\n                whilePrice = tokens[tokenNameIndex].curBuyPrice;\n            }\n\n            if (amountNecessary > 0) {\n                sellToken(symbolName, priceInWei, amountNecessary);\n                //add a limit order, we couldn't fulfill all the orders!\n            }\n\n        }\n    }\n\n\n\n    ///////////////////////////\n    // ASK LIMIT ORDER LOGIC //\n    ///////////////////////////\n    function addSellOffer(uint8 tokenIndex, uint priceInWei, uint amount, address who) internal {\n        tokens[tokenIndex].sellBook[priceInWei].offers_length++;\n        tokens[tokenIndex].sellBook[priceInWei].offers[tokens[tokenIndex].sellBook[priceInWei].offers_length] = Offer(amount, who);\n\n\n        if (tokens[tokenIndex].sellBook[priceInWei].offers_length == 1) {\n            tokens[tokenIndex].sellBook[priceInWei].offers_key = 1;\n            //we have a new sell order - increase the counter, so we can set the getOrderBook array later\n            tokens[tokenIndex].amountSellPrices++;\n\n            //lowerPrice and higherPrice have to be set\n            uint curSellPrice = tokens[tokenIndex].curSellPrice;\n\n            uint highestSellPrice = tokens[tokenIndex].highestSellPrice;\n            if (highestSellPrice == 0 || highestSellPrice < priceInWei) {\n                if (curSellPrice == 0) {\n                    //there is no sell order yet, we insert the first one...\n                    tokens[tokenIndex].curSellPrice = priceInWei;\n                    tokens[tokenIndex].sellBook[priceInWei].higherPrice = 0;\n                    tokens[tokenIndex].sellBook[priceInWei].lowerPrice = 0;\n                }\n                else {\n\n                    //this is the highest sell order\n                    tokens[tokenIndex].sellBook[highestSellPrice].higherPrice = priceInWei;\n                    tokens[tokenIndex].sellBook[priceInWei].lowerPrice = highestSellPrice;\n                    tokens[tokenIndex].sellBook[priceInWei].higherPrice = 0;\n                }\n\n                tokens[tokenIndex].highestSellPrice = priceInWei;\n\n            }\n            else if (curSellPrice > priceInWei) {\n                //the offer to sell is the lowest one, we don't need to find the right spot\n                tokens[tokenIndex].sellBook[curSellPrice].lowerPrice = priceInWei;\n                tokens[tokenIndex].sellBook[priceInWei].higherPrice = curSellPrice;\n                tokens[tokenIndex].sellBook[priceInWei].lowerPrice = 0;\n                tokens[tokenIndex].curSellPrice = priceInWei;\n\n            }\n            else {\n                //we are somewhere in the middle, we need to find the right spot first...\n\n                uint sellPrice = tokens[tokenIndex].curSellPrice;\n                bool weFoundIt = false;\n                while (sellPrice > 0 && !weFoundIt) {\n                    if (\n                    sellPrice < priceInWei &&\n                    tokens[tokenIndex].sellBook[sellPrice].higherPrice > priceInWei\n                    ) {\n                        //set the new order-book entry higher/lowerPrice first right\n                        tokens[tokenIndex].sellBook[priceInWei].lowerPrice = sellPrice;\n                        tokens[tokenIndex].sellBook[priceInWei].higherPrice = tokens[tokenIndex].sellBook[sellPrice].higherPrice;\n\n                        //set the higherPrice'd order-book entries lowerPrice to the current Price\n                        tokens[tokenIndex].sellBook[tokens[tokenIndex].sellBook[sellPrice].higherPrice].lowerPrice = priceInWei;\n                        //set the lowerPrice'd order-book entries higherPrice to the current Price\n                        tokens[tokenIndex].sellBook[sellPrice].higherPrice = priceInWei;\n\n                        //set we found it.\n                        weFoundIt = true;\n                    }\n                    sellPrice = tokens[tokenIndex].sellBook[sellPrice].higherPrice;\n                }\n            }\n        }\n    }\n\n    //////////////////////////////\n    // CANCEL LIMIT ORDER LOGIC //\n    //////////////////////////////\n    function cancelOrder(string symbolName, bool isSellOrder, uint priceInWei, uint offerKey) {\n        uint8 symbolNameIndex = getSymbolIndexOrThrow(symbolName);\n        if (isSellOrder) {\n            require(tokens[symbolNameIndex].sellBook[priceInWei].offers[offerKey].who == msg.sender);\n\n            uint tokensAmount = tokens[symbolNameIndex].sellBook[priceInWei].offers[offerKey].amount;\n            require(tokenBalanceForAddress[msg.sender][symbolNameIndex] + tokensAmount >= tokenBalanceForAddress[msg.sender][symbolNameIndex]);\n\n\n            tokenBalanceForAddress[msg.sender][symbolNameIndex] += tokensAmount;\n            tokens[symbolNameIndex].sellBook[priceInWei].offers[offerKey].amount = 0;\n            SellOrderCanceled(symbolNameIndex, priceInWei, offerKey);\n\n        }\n        else {\n            require(tokens[symbolNameIndex].buyBook[priceInWei].offers[offerKey].who == msg.sender);\n            uint etherToRefund = tokens[symbolNameIndex].buyBook[priceInWei].offers[offerKey].amount * priceInWei;\n            require(balanceEthForAddress[msg.sender] + etherToRefund >= balanceEthForAddress[msg.sender]);\n\n            balanceEthForAddress[msg.sender] += etherToRefund;\n            tokens[symbolNameIndex].buyBook[priceInWei].offers[offerKey].amount = 0;\n            BuyOrderCanceled(symbolNameIndex, priceInWei, offerKey);\n        }\n    }\n\n\n\n\n\n\n    ////////////////////////////////\n    // STRING COMPARISON FUNCTION //\n    ////////////////////////////////\n    function stringsEqual(string storage _a, string memory _b) internal returns (bool) {\nbytes storage a = bytes(_a);\nbytes memory b = bytes(_b);\nif (a.length != b.length) {\nreturn false;\n}\n// @todo unroll this loop\nfor (uint i = 0; i < a.length; i ++) {\nif (a[i] != b[i]) {\nreturn false;\n}\n}\nreturn true;\n}\n\n\n}",
  "sourcePath": "C:\\Users\\Batman\\Desktop\\Ethereum\\Practical Part 2\\test_exchange\\contracts\\Exchange.sol",
  "compiler": {
    "name": "solc",
    "version": "0.4.19+commit.c4cbbb05.Emscripten.clang"
  },
  "schemaVersion": "1.0.1",
  "updatedAt": "2018-02-05T18:55:57.630Z"
}